{
    "contractName": "Test",
    "abi": [
        {
            "inputs": [],
            "stateMutability": "nonpayable",
            "type": "constructor"
        },
        {
            "anonymous": false,
            "inputs": [
                {
                    "indexed": true,
                    "internalType": "address",
                    "name": "owner",
                    "type": "address"
                },
                {
                    "indexed": true,
                    "internalType": "address",
                    "name": "approved",
                    "type": "address"
                },
                {
                    "indexed": true,
                    "internalType": "uint256",
                    "name": "tokenId",
                    "type": "uint256"
                }
            ],
            "name": "Approval",
            "type": "event"
        },
        {
            "anonymous": false,
            "inputs": [
                {
                    "indexed": true,
                    "internalType": "address",
                    "name": "owner",
                    "type": "address"
                },
                {
                    "indexed": true,
                    "internalType": "address",
                    "name": "operator",
                    "type": "address"
                },
                {
                    "indexed": false,
                    "internalType": "bool",
                    "name": "approved",
                    "type": "bool"
                }
            ],
            "name": "ApprovalForAll",
            "type": "event"
        },
        {
            "anonymous": false,
            "inputs": [
                {
                    "indexed": true,
                    "internalType": "address",
                    "name": "delegator",
                    "type": "address"
                },
                {
                    "indexed": true,
                    "internalType": "address",
                    "name": "fromDelegate",
                    "type": "address"
                },
                {
                    "indexed": true,
                    "internalType": "address",
                    "name": "toDelegate",
                    "type": "address"
                }
            ],
            "name": "DelegateChanged",
            "type": "event"
        },
        {
            "anonymous": false,
            "inputs": [
                {
                    "indexed": true,
                    "internalType": "address",
                    "name": "delegate",
                    "type": "address"
                },
                {
                    "indexed": false,
                    "internalType": "uint256",
                    "name": "previousBalance",
                    "type": "uint256"
                },
                {
                    "indexed": false,
                    "internalType": "uint256",
                    "name": "newBalance",
                    "type": "uint256"
                }
            ],
            "name": "DelegateVotesChanged",
            "type": "event"
        },
        {
            "anonymous": false,
            "inputs": [
                {
                    "indexed": true,
                    "internalType": "address",
                    "name": "previousOwner",
                    "type": "address"
                },
                {
                    "indexed": true,
                    "internalType": "address",
                    "name": "newOwner",
                    "type": "address"
                }
            ],
            "name": "OwnershipTransferred",
            "type": "event"
        },
        {
            "anonymous": false,
            "inputs": [
                {
                    "indexed": false,
                    "internalType": "address",
                    "name": "account",
                    "type": "address"
                }
            ],
            "name": "Paused",
            "type": "event"
        },
        {
            "anonymous": false,
            "inputs": [
                {
                    "indexed": true,
                    "internalType": "address",
                    "name": "from",
                    "type": "address"
                },
                {
                    "indexed": true,
                    "internalType": "address",
                    "name": "to",
                    "type": "address"
                },
                {
                    "indexed": true,
                    "internalType": "uint256",
                    "name": "tokenId",
                    "type": "uint256"
                }
            ],
            "name": "Transfer",
            "type": "event"
        },
        {
            "anonymous": false,
            "inputs": [
                {
                    "indexed": false,
                    "internalType": "address",
                    "name": "account",
                    "type": "address"
                }
            ],
            "name": "Unpaused",
            "type": "event"
        },
        {
            "inputs": [],
            "name": "DOMAIN_SEPARATOR",
            "outputs": [
                {
                    "internalType": "bytes32",
                    "name": "",
                    "type": "bytes32"
                }
            ],
            "stateMutability": "view",
            "type": "function"
        },
        {
            "inputs": [
                {
                    "internalType": "address",
                    "name": "to",
                    "type": "address"
                },
                {
                    "internalType": "uint256",
                    "name": "tokenId",
                    "type": "uint256"
                }
            ],
            "name": "approve",
            "outputs": [],
            "stateMutability": "nonpayable",
            "type": "function"
        },
        {
            "inputs": [
                {
                    "internalType": "address",
                    "name": "owner",
                    "type": "address"
                }
            ],
            "name": "balanceOf",
            "outputs": [
                {
                    "internalType": "uint256",
                    "name": "",
                    "type": "uint256"
                }
            ],
            "stateMutability": "view",
            "type": "function"
        },
        {
            "inputs": [
                {
                    "internalType": "uint256",
                    "name": "tokenId",
                    "type": "uint256"
                }
            ],
            "name": "burn",
            "outputs": [],
            "stateMutability": "nonpayable",
            "type": "function"
        },
        {
            "inputs": [
                {
                    "internalType": "address",
                    "name": "delegatee",
                    "type": "address"
                }
            ],
            "name": "delegate",
            "outputs": [],
            "stateMutability": "nonpayable",
            "type": "function"
        },
        {
            "inputs": [
                {
                    "internalType": "address",
                    "name": "delegatee",
                    "type": "address"
                },
                {
                    "internalType": "uint256",
                    "name": "nonce",
                    "type": "uint256"
                },
                {
                    "internalType": "uint256",
                    "name": "expiry",
                    "type": "uint256"
                },
                {
                    "internalType": "uint8",
                    "name": "v",
                    "type": "uint8"
                },
                {
                    "internalType": "bytes32",
                    "name": "r",
                    "type": "bytes32"
                },
                {
                    "internalType": "bytes32",
                    "name": "s",
                    "type": "bytes32"
                }
            ],
            "name": "delegateBySig",
            "outputs": [],
            "stateMutability": "nonpayable",
            "type": "function"
        },
        {
            "inputs": [
                {
                    "internalType": "address",
                    "name": "account",
                    "type": "address"
                }
            ],
            "name": "delegates",
            "outputs": [
                {
                    "internalType": "address",
                    "name": "",
                    "type": "address"
                }
            ],
            "stateMutability": "view",
            "type": "function"
        },
        {
            "inputs": [
                {
                    "internalType": "uint256",
                    "name": "tokenId",
                    "type": "uint256"
                }
            ],
            "name": "getApproved",
            "outputs": [
                {
                    "internalType": "address",
                    "name": "",
                    "type": "address"
                }
            ],
            "stateMutability": "view",
            "type": "function"
        },
        {
            "inputs": [
                {
                    "internalType": "uint256",
                    "name": "blockNumber",
                    "type": "uint256"
                }
            ],
            "name": "getPastTotalSupply",
            "outputs": [
                {
                    "internalType": "uint256",
                    "name": "",
                    "type": "uint256"
                }
            ],
            "stateMutability": "view",
            "type": "function"
        },
        {
            "inputs": [
                {
                    "internalType": "address",
                    "name": "account",
                    "type": "address"
                },
                {
                    "internalType": "uint256",
                    "name": "blockNumber",
                    "type": "uint256"
                }
            ],
            "name": "getPastVotes",
            "outputs": [
                {
                    "internalType": "uint256",
                    "name": "",
                    "type": "uint256"
                }
            ],
            "stateMutability": "view",
            "type": "function"
        },
        {
            "inputs": [
                {
                    "internalType": "address",
                    "name": "account",
                    "type": "address"
                }
            ],
            "name": "getVotes",
            "outputs": [
                {
                    "internalType": "uint256",
                    "name": "",
                    "type": "uint256"
                }
            ],
            "stateMutability": "view",
            "type": "function"
        },
        {
            "inputs": [
                {
                    "internalType": "address",
                    "name": "owner",
                    "type": "address"
                },
                {
                    "internalType": "address",
                    "name": "operator",
                    "type": "address"
                }
            ],
            "name": "isApprovedForAll",
            "outputs": [
                {
                    "internalType": "bool",
                    "name": "",
                    "type": "bool"
                }
            ],
            "stateMutability": "view",
            "type": "function"
        },
        {
            "inputs": [],
            "name": "name",
            "outputs": [
                {
                    "internalType": "string",
                    "name": "",
                    "type": "string"
                }
            ],
            "stateMutability": "view",
            "type": "function"
        },
        {
            "inputs": [
                {
                    "internalType": "address",
                    "name": "owner",
                    "type": "address"
                }
            ],
            "name": "nonces",
            "outputs": [
                {
                    "internalType": "uint256",
                    "name": "",
                    "type": "uint256"
                }
            ],
            "stateMutability": "view",
            "type": "function"
        },
        {
            "inputs": [],
            "name": "owner",
            "outputs": [
                {
                    "internalType": "address",
                    "name": "",
                    "type": "address"
                }
            ],
            "stateMutability": "view",
            "type": "function"
        },
        {
            "inputs": [
                {
                    "internalType": "uint256",
                    "name": "tokenId",
                    "type": "uint256"
                }
            ],
            "name": "ownerOf",
            "outputs": [
                {
                    "internalType": "address",
                    "name": "",
                    "type": "address"
                }
            ],
            "stateMutability": "view",
            "type": "function"
        },
        {
            "inputs": [],
            "name": "paused",
            "outputs": [
                {
                    "internalType": "bool",
                    "name": "",
                    "type": "bool"
                }
            ],
            "stateMutability": "view",
            "type": "function"
        },
        {
            "inputs": [],
            "name": "renounceOwnership",
            "outputs": [],
            "stateMutability": "nonpayable",
            "type": "function"
        },
        {
            "inputs": [
                {
                    "internalType": "address",
                    "name": "from",
                    "type": "address"
                },
                {
                    "internalType": "address",
                    "name": "to",
                    "type": "address"
                },
                {
                    "internalType": "uint256",
                    "name": "tokenId",
                    "type": "uint256"
                }
            ],
            "name": "safeTransferFrom",
            "outputs": [],
            "stateMutability": "nonpayable",
            "type": "function"
        },
        {
            "inputs": [
                {
                    "internalType": "address",
                    "name": "from",
                    "type": "address"
                },
                {
                    "internalType": "address",
                    "name": "to",
                    "type": "address"
                },
                {
                    "internalType": "uint256",
                    "name": "tokenId",
                    "type": "uint256"
                },
                {
                    "internalType": "bytes",
                    "name": "_data",
                    "type": "bytes"
                }
            ],
            "name": "safeTransferFrom",
            "outputs": [],
            "stateMutability": "nonpayable",
            "type": "function"
        },
        {
            "inputs": [
                {
                    "internalType": "address",
                    "name": "operator",
                    "type": "address"
                },
                {
                    "internalType": "bool",
                    "name": "approved",
                    "type": "bool"
                }
            ],
            "name": "setApprovalForAll",
            "outputs": [],
            "stateMutability": "nonpayable",
            "type": "function"
        },
        {
            "inputs": [],
            "name": "symbol",
            "outputs": [
                {
                    "internalType": "string",
                    "name": "",
                    "type": "string"
                }
            ],
            "stateMutability": "view",
            "type": "function"
        },
        {
            "inputs": [
                {
                    "internalType": "uint256",
                    "name": "index",
                    "type": "uint256"
                }
            ],
            "name": "tokenByIndex",
            "outputs": [
                {
                    "internalType": "uint256",
                    "name": "",
                    "type": "uint256"
                }
            ],
            "stateMutability": "view",
            "type": "function"
        },
        {
            "inputs": [
                {
                    "internalType": "address",
                    "name": "owner",
                    "type": "address"
                },
                {
                    "internalType": "uint256",
                    "name": "index",
                    "type": "uint256"
                }
            ],
            "name": "tokenOfOwnerByIndex",
            "outputs": [
                {
                    "internalType": "uint256",
                    "name": "",
                    "type": "uint256"
                }
            ],
            "stateMutability": "view",
            "type": "function"
        },
        {
            "inputs": [],
            "name": "totalSupply",
            "outputs": [
                {
                    "internalType": "uint256",
                    "name": "",
                    "type": "uint256"
                }
            ],
            "stateMutability": "view",
            "type": "function"
        },
        {
            "inputs": [
                {
                    "internalType": "address",
                    "name": "from",
                    "type": "address"
                },
                {
                    "internalType": "address",
                    "name": "to",
                    "type": "address"
                },
                {
                    "internalType": "uint256",
                    "name": "tokenId",
                    "type": "uint256"
                }
            ],
            "name": "transferFrom",
            "outputs": [],
            "stateMutability": "nonpayable",
            "type": "function"
        },
        {
            "inputs": [
                {
                    "internalType": "address",
                    "name": "newOwner",
                    "type": "address"
                }
            ],
            "name": "transferOwnership",
            "outputs": [],
            "stateMutability": "nonpayable",
            "type": "function"
        },
        {
            "inputs": [],
            "name": "pause",
            "outputs": [],
            "stateMutability": "nonpayable",
            "type": "function"
        },
        {
            "inputs": [],
            "name": "unpause",
            "outputs": [],
            "stateMutability": "nonpayable",
            "type": "function"
        },
        {
            "inputs": [
                {
                    "internalType": "address",
                    "name": "to",
                    "type": "address"
                },
                {
                    "internalType": "string",
                    "name": "uri",
                    "type": "string"
                }
            ],
            "name": "safeMint",
            "outputs": [],
            "stateMutability": "nonpayable",
            "type": "function"
        },
        {
            "inputs": [
                {
                    "internalType": "uint256",
                    "name": "tokenId",
                    "type": "uint256"
                }
            ],
            "name": "tokenURI",
            "outputs": [
                {
                    "internalType": "string",
                    "name": "",
                    "type": "string"
                }
            ],
            "stateMutability": "view",
            "type": "function"
        },
        {
            "inputs": [
                {
                    "internalType": "bytes4",
                    "name": "interfaceId",
                    "type": "bytes4"
                }
            ],
            "name": "supportsInterface",
            "outputs": [
                {
                    "internalType": "bool",
                    "name": "",
                    "type": "bool"
                }
            ],
            "stateMutability": "view",
            "type": "function"
        }
    ],
    "bytecode": "0x6101406040523480156200001257600080fd5b506040518060400160405280600481526020017f74657374000000000000000000000000000000000000000000000000000000008152506040518060400160405280600181526020017f31000000000000000000000000000000000000000000000000000000000000008152506040518060400160405280600481526020017f74657374000000000000000000000000000000000000000000000000000000008152506040518060400160405280600381526020017f54535400000000000000000000000000000000000000000000000000000000008152508160009080519060200190620001039291906200031c565b5080600190805190602001906200011c9291906200031c565b5050506000600b60006101000a81548160ff0219169083151502179055506200015a6200014e6200021260201b60201c565b6200021a60201b60201c565b60008280519060200120905060008280519060200120905060007f8b73c3c69bb8fe3d512ecc4cf759cc79239f7b179b0ffacaa9a75d522b39400f90508260e081815250508161010081815250504660a08181525050620001c3818484620002e060201b60201c565b608081815250503073ffffffffffffffffffffffffffffffffffffffff1660c08173ffffffffffffffffffffffffffffffffffffffff1681525050806101208181525050505050505062000509565b600033905090565b6000600b60019054906101000a900473ffffffffffffffffffffffffffffffffffffffff16905081600b60016101000a81548173ffffffffffffffffffffffffffffffffffffffff021916908373ffffffffffffffffffffffffffffffffffffffff1602179055508173ffffffffffffffffffffffffffffffffffffffff168173ffffffffffffffffffffffffffffffffffffffff167f8be0079c531659141344cd1fd0a4f28419497f9722a3daafe3b4186f6b6457e060405160405180910390a35050565b60008383834630604051602001620002fd95949392919062000447565b6040516020818303038152906040528051906020012090509392505050565b8280546200032a90620004d3565b90600052602060002090601f0160209004810192826200034e57600085556200039a565b82601f106200036957805160ff19168380011785556200039a565b828001600101855582156200039a579182015b82811115620003995782518255916020019190600101906200037c565b5b509050620003a99190620003ad565b5090565b5b80821115620003c8576000816000905550600101620003ae565b5090565b6000819050919050565b620003e181620003cc565b82525050565b6000819050919050565b620003fc81620003e7565b82525050565b600073ffffffffffffffffffffffffffffffffffffffff82169050919050565b60006200042f8262000402565b9050919050565b620004418162000422565b82525050565b600060a0820190506200045e6000830188620003d6565b6200046d6020830187620003d6565b6200047c6040830186620003d6565b6200048b6060830185620003f1565b6200049a608083018462000436565b9695505050505050565b7f4e487b7100000000000000000000000000000000000000000000000000000000600052602260045260246000fd5b60006002820490506001821680620004ec57607f821691505b60208210811415620005035762000502620004a4565b5b50919050565b60805160a05160c05160e0516101005161012051615a116200055960003960006119ad015260006119ef015260006119ce0152600061190301526000611959015260006119820152615a116000f3fe608060405234801561001057600080fd5b50600436106101f05760003560e01c80636352211e1161010f5780639ab24eb0116100a2578063c87b56dd11610071578063c87b56dd146105b7578063d204c45e146105e7578063e985e9c514610603578063f2fde38b14610633576101f0565b80639ab24eb014610533578063a22cb46514610563578063b88d4fde1461057f578063c3cda5201461059b576101f0565b80638456cb59116100de5780638456cb59146104bd5780638da5cb5b146104c75780638e539e8c146104e557806395d89b4114610515576101f0565b80636352211e1461042357806370a0823114610453578063715018a6146104835780637ecebe001461048d576101f0565b80633a46b1a8116101875780634f6ccce7116101565780634f6ccce714610389578063587cde1e146103b95780635c19a95c146103e95780635c975abb14610405576101f0565b80633a46b1a8146103175780633f4ba83a1461034757806342842e0e1461035157806342966c681461036d576101f0565b806318160ddd116101c357806318160ddd1461028f57806323b872dd146102ad5780632f745c59146102c95780633644e515146102f9576101f0565b806301ffc9a7146101f557806306fdde0314610225578063081812fc14610243578063095ea7b314610273575b600080fd5b61020f600480360381019061020a9190613bda565b61064f565b60405161021c9190613c22565b60405180910390f35b61022d610661565b60405161023a9190613cd6565b60405180910390f35b61025d60048036038101906102589190613d2e565b6106f3565b60405161026a9190613d9c565b60405180910390f35b61028d60048036038101906102889190613de3565b610778565b005b610297610890565b6040516102a49190613e32565b60405180910390f35b6102c760048036038101906102c29190613e4d565b61089d565b005b6102e360048036038101906102de9190613de3565b6108fd565b6040516102f09190613e32565b60405180910390f35b6103016109a2565b60405161030e9190613eb9565b60405180910390f35b610331600480360381019061032c9190613de3565b6109b1565b60405161033e9190613e32565b60405180910390f35b61034f610a0c565b005b61036b60048036038101906103669190613e4d565b610a92565b005b61038760048036038101906103829190613d2e565b610ab2565b005b6103a3600480360381019061039e9190613d2e565b610b0e565b6040516103b09190613e32565b60405180910390f35b6103d360048036038101906103ce9190613ed4565b610b7f565b6040516103e09190613d9c565b60405180910390f35b61040360048036038101906103fe9190613ed4565b610be8565b005b61040d610c02565b60405161041a9190613c22565b60405180910390f35b61043d60048036038101906104389190613d2e565b610c19565b60405161044a9190613d9c565b60405180910390f35b61046d60048036038101906104689190613ed4565b610ccb565b60405161047a9190613e32565b60405180910390f35b61048b610d83565b005b6104a760048036038101906104a29190613ed4565b610e0b565b6040516104b49190613e32565b60405180910390f35b6104c5610e5b565b005b6104cf610ee1565b6040516104dc9190613d9c565b60405180910390f35b6104ff60048036038101906104fa9190613d2e565b610f0b565b60405161050c9190613e32565b60405180910390f35b61051d610f6a565b60405161052a9190613cd6565b60405180910390f35b61054d60048036038101906105489190613ed4565b610ffc565b60405161055a9190613e32565b60405180910390f35b61057d60048036038101906105789190613f2d565b61104c565b005b610599600480360381019061059491906140a2565b611062565b005b6105b560048036038101906105b0919061418a565b6110c4565b005b6105d160048036038101906105cc9190613d2e565b6111c8565b6040516105de9190613cd6565b60405180910390f35b61060160048036038101906105fc91906142b8565b6111da565b005b61061d60048036038101906106189190614314565b611287565b60405161062a9190613c22565b60405180910390f35b61064d60048036038101906106489190613ed4565b61131b565b005b600061065a82611413565b9050919050565b60606000805461067090614383565b80601f016020809104026020016040519081016040528092919081815260200182805461069c90614383565b80156106e95780601f106106be576101008083540402835291602001916106e9565b820191906000526020600020905b8154815290600101906020018083116106cc57829003601f168201915b5050505050905090565b60006106fe8261148d565b61073d576040517f08c379a000000000000000000000000000000000000000000000000000000000815260040161073490614427565b60405180910390fd5b6004600083815260200190815260200160002060009054906101000a900473ffffffffffffffffffffffffffffffffffffffff169050919050565b600061078382610c19565b90508073ffffffffffffffffffffffffffffffffffffffff168373ffffffffffffffffffffffffffffffffffffffff1614156107f4576040517f08c379a00000000000000000000000000000000000000000000000000000000081526004016107eb906144b9565b60405180910390fd5b8073ffffffffffffffffffffffffffffffffffffffff166108136114f9565b73ffffffffffffffffffffffffffffffffffffffff16148061084257506108418161083c6114f9565b611287565b5b610881576040517f08c379a00000000000000000000000000000000000000000000000000000000081526004016108789061454b565b60405180910390fd5b61088b8383611501565b505050565b6000600880549050905090565b6108ae6108a86114f9565b826115ba565b6108ed576040517f08c379a00000000000000000000000000000000000000000000000000000000081526004016108e4906145dd565b60405180910390fd5b6108f8838383611698565b505050565b600061090883610ccb565b8210610949576040517f08c379a00000000000000000000000000000000000000000000000000000000081526004016109409061466f565b60405180910390fd5b600660008473ffffffffffffffffffffffffffffffffffffffff1673ffffffffffffffffffffffffffffffffffffffff168152602001908152602001600020600083815260200190815260200160002054905092915050565b60006109ac6118ff565b905090565b6000610a0482600d60008673ffffffffffffffffffffffffffffffffffffffff1673ffffffffffffffffffffffffffffffffffffffff168152602001908152602001600020611a1990919063ffffffff16565b905092915050565b610a146114f9565b73ffffffffffffffffffffffffffffffffffffffff16610a32610ee1565b73ffffffffffffffffffffffffffffffffffffffff1614610a88576040517f08c379a0000000000000000000000000000000000000000000000000000000008152600401610a7f906146db565b60405180910390fd5b610a90611b71565b565b610aad83838360405180602001604052806000815250611062565b505050565b610ac3610abd6114f9565b826115ba565b610b02576040517f08c379a0000000000000000000000000000000000000000000000000000000008152600401610af99061476d565b60405180910390fd5b610b0b81611c13565b50565b6000610b18610890565b8210610b59576040517f08c379a0000000000000000000000000000000000000000000000000000000008152600401610b50906147ff565b60405180910390fd5b60088281548110610b6d57610b6c61481f565b5b90600052602060002001549050919050565b6000600c60008373ffffffffffffffffffffffffffffffffffffffff1673ffffffffffffffffffffffffffffffffffffffff16815260200190815260200160002060009054906101000a900473ffffffffffffffffffffffffffffffffffffffff169050919050565b6000610bf26114f9565b9050610bfe8183611c1f565b5050565b6000600b60009054906101000a900460ff16905090565b6000806002600084815260200190815260200160002060009054906101000a900473ffffffffffffffffffffffffffffffffffffffff169050600073ffffffffffffffffffffffffffffffffffffffff168173ffffffffffffffffffffffffffffffffffffffff161415610cc2576040517f08c379a0000000000000000000000000000000000000000000000000000000008152600401610cb9906148c0565b60405180910390fd5b80915050919050565b60008073ffffffffffffffffffffffffffffffffffffffff168273ffffffffffffffffffffffffffffffffffffffff161415610d3c576040517f08c379a0000000000000000000000000000000000000000000000000000000008152600401610d3390614952565b60405180910390fd5b600360008373ffffffffffffffffffffffffffffffffffffffff1673ffffffffffffffffffffffffffffffffffffffff168152602001908152602001600020549050919050565b610d8b6114f9565b73ffffffffffffffffffffffffffffffffffffffff16610da9610ee1565b73ffffffffffffffffffffffffffffffffffffffff1614610dff576040517f08c379a0000000000000000000000000000000000000000000000000000000008152600401610df6906146db565b60405180910390fd5b610e096000611d33565b565b6000610e54600f60008473ffffffffffffffffffffffffffffffffffffffff1673ffffffffffffffffffffffffffffffffffffffff168152602001908152602001600020611df9565b9050919050565b610e636114f9565b73ffffffffffffffffffffffffffffffffffffffff16610e81610ee1565b73ffffffffffffffffffffffffffffffffffffffff1614610ed7576040517f08c379a0000000000000000000000000000000000000000000000000000000008152600401610ece906146db565b60405180910390fd5b610edf611e07565b565b6000600b60019054906101000a900473ffffffffffffffffffffffffffffffffffffffff16905090565b6000438210610f4f576040517f08c379a0000000000000000000000000000000000000000000000000000000008152600401610f46906149be565b60405180910390fd5b610f6382600e611a1990919063ffffffff16565b9050919050565b606060018054610f7990614383565b80601f0160208091040260200160405190810160405280929190818152602001828054610fa590614383565b8015610ff25780601f10610fc757610100808354040283529160200191610ff2565b820191906000526020600020905b815481529060010190602001808311610fd557829003601f168201915b5050505050905090565b6000611045600d60008473ffffffffffffffffffffffffffffffffffffffff1673ffffffffffffffffffffffffffffffffffffffff168152602001908152602001600020611eaa565b9050919050565b61105e6110576114f9565b8383611f45565b5050565b61107361106d6114f9565b836115ba565b6110b2576040517f08c379a00000000000000000000000000000000000000000000000000000000081526004016110a9906145dd565b60405180910390fd5b6110be848484846120b2565b50505050565b83421115611107576040517f08c379a00000000000000000000000000000000000000000000000000000000081526004016110fe90614a2a565b60405180910390fd5b60006111696111617fe48329057bfd03d55e49b547132e39cffd9c1820ad7b9d4c5307691425d15adf8989896040516020016111469493929190614a4a565b6040516020818303038152906040528051906020012061210e565b858585612128565b905061117481612153565b86146111b5576040517f08c379a00000000000000000000000000000000000000000000000000000000081526004016111ac90614adb565b60405180910390fd5b6111bf8188611c1f565b50505050505050565b60606111d3826121b1565b9050919050565b6111e26114f9565b73ffffffffffffffffffffffffffffffffffffffff16611200610ee1565b73ffffffffffffffffffffffffffffffffffffffff1614611256576040517f08c379a000000000000000000000000000000000000000000000000000000000815260040161124d906146db565b60405180910390fd5b60006112626010611df9565b905061126e6010612303565b6112788382612319565b6112828183612337565b505050565b6000600560008473ffffffffffffffffffffffffffffffffffffffff1673ffffffffffffffffffffffffffffffffffffffff16815260200190815260200160002060008373ffffffffffffffffffffffffffffffffffffffff1673ffffffffffffffffffffffffffffffffffffffff16815260200190815260200160002060009054906101000a900460ff16905092915050565b6113236114f9565b73ffffffffffffffffffffffffffffffffffffffff16611341610ee1565b73ffffffffffffffffffffffffffffffffffffffff1614611397576040517f08c379a000000000000000000000000000000000000000000000000000000000815260040161138e906146db565b60405180910390fd5b600073ffffffffffffffffffffffffffffffffffffffff168173ffffffffffffffffffffffffffffffffffffffff161415611407576040517f08c379a00000000000000000000000000000000000000000000000000000000081526004016113fe90614b6d565b60405180910390fd5b61141081611d33565b50565b60007f780e9d63000000000000000000000000000000000000000000000000000000007bffffffffffffffffffffffffffffffffffffffffffffffffffffffff1916827bffffffffffffffffffffffffffffffffffffffffffffffffffffffff191614806114865750611485826123ab565b5b9050919050565b60008073ffffffffffffffffffffffffffffffffffffffff166002600084815260200190815260200160002060009054906101000a900473ffffffffffffffffffffffffffffffffffffffff1673ffffffffffffffffffffffffffffffffffffffff1614159050919050565b600033905090565b816004600083815260200190815260200160002060006101000a81548173ffffffffffffffffffffffffffffffffffffffff021916908373ffffffffffffffffffffffffffffffffffffffff160217905550808273ffffffffffffffffffffffffffffffffffffffff1661157483610c19565b73ffffffffffffffffffffffffffffffffffffffff167f8c5be1e5ebec7d5bd14f71427d1e84f3dd0314c0f7b2291e5b200ac8c7c3b92560405160405180910390a45050565b60006115c58261148d565b611604576040517f08c379a00000000000000000000000000000000000000000000000000000000081526004016115fb90614bff565b60405180910390fd5b600061160f83610c19565b90508073ffffffffffffffffffffffffffffffffffffffff168473ffffffffffffffffffffffffffffffffffffffff16148061165157506116508185611287565b5b8061168f57508373ffffffffffffffffffffffffffffffffffffffff16611677846106f3565b73ffffffffffffffffffffffffffffffffffffffff16145b91505092915050565b8273ffffffffffffffffffffffffffffffffffffffff166116b882610c19565b73ffffffffffffffffffffffffffffffffffffffff161461170e576040517f08c379a000000000000000000000000000000000000000000000000000000000815260040161170590614c91565b60405180910390fd5b600073ffffffffffffffffffffffffffffffffffffffff168273ffffffffffffffffffffffffffffffffffffffff16141561177e576040517f08c379a000000000000000000000000000000000000000000000000000000000815260040161177590614d23565b60405180910390fd5b61178983838361248d565b611794600082611501565b6001600360008573ffffffffffffffffffffffffffffffffffffffff1673ffffffffffffffffffffffffffffffffffffffff16815260200190815260200160002060008282546117e49190614d72565b925050819055506001600360008473ffffffffffffffffffffffffffffffffffffffff1673ffffffffffffffffffffffffffffffffffffffff168152602001908152602001600020600082825461183b9190614da6565b92505081905550816002600083815260200190815260200160002060006101000a81548173ffffffffffffffffffffffffffffffffffffffff021916908373ffffffffffffffffffffffffffffffffffffffff160217905550808273ffffffffffffffffffffffffffffffffffffffff168473ffffffffffffffffffffffffffffffffffffffff167fddf252ad1be2c89b69c2b068fc378daa952ba7f163c4a11628f55a4df523b3ef60405160405180910390a46118fa8383836124e5565b505050565b60007f000000000000000000000000000000000000000000000000000000000000000073ffffffffffffffffffffffffffffffffffffffff163073ffffffffffffffffffffffffffffffffffffffff1614801561197b57507f000000000000000000000000000000000000000000000000000000000000000046145b156119a8577f00000000000000000000000000000000000000000000000000000000000000009050611a16565b611a137f00000000000000000000000000000000000000000000000000000000000000007f00000000000000000000000000000000000000000000000000000000000000007f00000000000000000000000000000000000000000000000000000000000000006124f5565b90505b90565b6000438210611a5d576040517f08c379a0000000000000000000000000000000000000000000000000000000008152600401611a5490614e48565b60405180910390fd5b60008360000180549050905060005b81811015611ae1576000611a80828461252f565b905084866000018281548110611a9957611a9861481f565b5b9060005260206000200160000160009054906101000a900463ffffffff1663ffffffff161115611acb57809250611adb565b600181611ad89190614da6565b91505b50611a6c565b60008214611b465784600001600183611afa9190614d72565b81548110611b0b57611b0a61481f565b5b9060005260206000200160000160049054906101000a90047bffffffffffffffffffffffffffffffffffffffffffffffffffffffff16611b49565b60005b7bffffffffffffffffffffffffffffffffffffffffffffffffffffffff169250505092915050565b611b79610c02565b611bb8576040517f08c379a0000000000000000000000000000000000000000000000000000000008152600401611baf90614eb4565b60405180910390fd5b6000600b60006101000a81548160ff0219169083151502179055507f5db9ee0a495bf2e6ff9c91a7834c1ba4fdd244a5e8aa4e537bd38aeae4b073aa611bfc6114f9565b604051611c099190613d9c565b60405180910390a1565b611c1c81612555565b50565b6000611c2a83610b7f565b905081600c60008573ffffffffffffffffffffffffffffffffffffffff1673ffffffffffffffffffffffffffffffffffffffff16815260200190815260200160002060006101000a81548173ffffffffffffffffffffffffffffffffffffffff021916908373ffffffffffffffffffffffffffffffffffffffff1602179055508173ffffffffffffffffffffffffffffffffffffffff168173ffffffffffffffffffffffffffffffffffffffff168473ffffffffffffffffffffffffffffffffffffffff167f3134e8a2e6d97e929a7e54011ea5485d7d196dd5f0ba4d4ef95803e8e3fc257f60405160405180910390a4611d2e8183611d29866125a8565b6125ba565b505050565b6000600b60019054906101000a900473ffffffffffffffffffffffffffffffffffffffff16905081600b60016101000a81548173ffffffffffffffffffffffffffffffffffffffff021916908373ffffffffffffffffffffffffffffffffffffffff1602179055508173ffffffffffffffffffffffffffffffffffffffff168173ffffffffffffffffffffffffffffffffffffffff167f8be0079c531659141344cd1fd0a4f28419497f9722a3daafe3b4186f6b6457e060405160405180910390a35050565b600081600001549050919050565b611e0f610c02565b15611e4f576040517f08c379a0000000000000000000000000000000000000000000000000000000008152600401611e4690614f20565b60405180910390fd5b6001600b60006101000a81548160ff0219169083151502179055507f62e78cea01bee320cd4e420270b5ea74000d11b0c9f74754ebdbfc544b05a258611e936114f9565b604051611ea09190613d9c565b60405180910390a1565b6000808260000180549050905060008114611f1c5782600001600182611ed09190614d72565b81548110611ee157611ee061481f565b5b9060005260206000200160000160049054906101000a90047bffffffffffffffffffffffffffffffffffffffffffffffffffffffff16611f1f565b60005b7bffffffffffffffffffffffffffffffffffffffffffffffffffffffff16915050919050565b8173ffffffffffffffffffffffffffffffffffffffff168373ffffffffffffffffffffffffffffffffffffffff161415611fb4576040517f08c379a0000000000000000000000000000000000000000000000000000000008152600401611fab90614f8c565b60405180910390fd5b80600560008573ffffffffffffffffffffffffffffffffffffffff1673ffffffffffffffffffffffffffffffffffffffff16815260200190815260200160002060008473ffffffffffffffffffffffffffffffffffffffff1673ffffffffffffffffffffffffffffffffffffffff16815260200190815260200160002060006101000a81548160ff0219169083151502179055508173ffffffffffffffffffffffffffffffffffffffff168373ffffffffffffffffffffffffffffffffffffffff167f17307eab39ab6107e8899845ad3d59bd9653f200f220920489ca2b5937696c31836040516120a59190613c22565b60405180910390a3505050565b6120bd848484611698565b6120c9848484846127c7565b612108576040517f08c379a00000000000000000000000000000000000000000000000000000000081526004016120ff9061501e565b60405180910390fd5b50505050565b600061212161211b6118ff565b8361295e565b9050919050565b600080600061213987878787612991565b9150915061214681612a9e565b8192505050949350505050565b600080600f60008473ffffffffffffffffffffffffffffffffffffffff1673ffffffffffffffffffffffffffffffffffffffff16815260200190815260200160002090506121a081611df9565b91506121ab81612303565b50919050565b60606121bc8261148d565b6121fb576040517f08c379a00000000000000000000000000000000000000000000000000000000081526004016121f2906150b0565b60405180910390fd5b6000600a6000848152602001908152602001600020805461221b90614383565b80601f016020809104026020016040519081016040528092919081815260200182805461224790614383565b80156122945780601f1061226957610100808354040283529160200191612294565b820191906000526020600020905b81548152906001019060200180831161227757829003601f168201915b5050505050905060006122a5612c73565b90506000815114156122bb5781925050506122fe565b6000825111156122f05780826040516020016122d892919061510c565b604051602081830303815290604052925050506122fe565b6122f984612c8a565b925050505b919050565b6001816000016000828254019250508190555050565b612333828260405180602001604052806000815250612d31565b5050565b6123408261148d565b61237f576040517f08c379a0000000000000000000000000000000000000000000000000000000008152600401612376906151a2565b60405180910390fd5b80600a600084815260200190815260200160002090805190602001906123a6929190613a8b565b505050565b60007f80ac58cd000000000000000000000000000000000000000000000000000000007bffffffffffffffffffffffffffffffffffffffffffffffffffffffff1916827bffffffffffffffffffffffffffffffffffffffffffffffffffffffff1916148061247657507f5b5e139f000000000000000000000000000000000000000000000000000000007bffffffffffffffffffffffffffffffffffffffffffffffffffffffff1916827bffffffffffffffffffffffffffffffffffffffffffffffffffffffff1916145b80612486575061248582612d8c565b5b9050919050565b612495610c02565b156124d5576040517f08c379a00000000000000000000000000000000000000000000000000000000081526004016124cc90614f20565b60405180910390fd5b6124e0838383612df6565b505050565b6124f0838383612f0a565b505050565b600083838346306040516020016125109594939291906151c2565b6040516020818303038152906040528051906020012090509392505050565b600060028284186125409190615244565b82841661254d9190614da6565b905092915050565b61255e81612f26565b6000600a6000838152602001908152602001600020805461257e90614383565b9050146125a557600a600082815260200190815260200160002060006125a49190613b11565b5b50565b60006125b382610ccb565b9050919050565b8173ffffffffffffffffffffffffffffffffffffffff168373ffffffffffffffffffffffffffffffffffffffff16141580156125f65750600081115b156127c257600073ffffffffffffffffffffffffffffffffffffffff168373ffffffffffffffffffffffffffffffffffffffff16146126de5760008061268761304384600d60008973ffffffffffffffffffffffffffffffffffffffff1673ffffffffffffffffffffffffffffffffffffffff1681526020019081526020016000206130599092919063ffffffff16565b915091508473ffffffffffffffffffffffffffffffffffffffff167fdec2bacdd2f05b59de34da9b523dff8be42e5e38e818c82fdb0bae774387a72483836040516126d3929190615275565b60405180910390a250505b600073ffffffffffffffffffffffffffffffffffffffff168273ffffffffffffffffffffffffffffffffffffffff16146127c15760008061276a61308784600d60008873ffffffffffffffffffffffffffffffffffffffff1673ffffffffffffffffffffffffffffffffffffffff1681526020019081526020016000206130599092919063ffffffff16565b915091508373ffffffffffffffffffffffffffffffffffffffff167fdec2bacdd2f05b59de34da9b523dff8be42e5e38e818c82fdb0bae774387a72483836040516127b6929190615275565b60405180910390a250505b5b505050565b60006127e88473ffffffffffffffffffffffffffffffffffffffff1661309d565b15612951578373ffffffffffffffffffffffffffffffffffffffff1663150b7a026128116114f9565b8786866040518563ffffffff1660e01b815260040161283394939291906152f3565b602060405180830381600087803b15801561284d57600080fd5b505af192505050801561287e57506040513d601f19601f8201168201806040525081019061287b9190615354565b60015b612901573d80600081146128ae576040519150601f19603f3d011682016040523d82523d6000602084013e6128b3565b606091505b506000815114156128f9576040517f08c379a00000000000000000000000000000000000000000000000000000000081526004016128f09061501e565b60405180910390fd5b805181602001fd5b63150b7a0260e01b7bffffffffffffffffffffffffffffffffffffffffffffffffffffffff1916817bffffffffffffffffffffffffffffffffffffffffffffffffffffffff191614915050612956565b600190505b949350505050565b600082826040516020016129739291906153ee565b60405160208183030381529060405280519060200120905092915050565b6000807f7fffffffffffffffffffffffffffffff5d576e7357a4501ddfe92f46681b20a08360001c11156129cc576000600391509150612a95565b601b8560ff16141580156129e45750601c8560ff1614155b156129f6576000600491509150612a95565b600060018787878760405160008152602001604052604051612a1b9493929190615434565b6020604051602081039080840390855afa158015612a3d573d6000803e3d6000fd5b505050602060405103519050600073ffffffffffffffffffffffffffffffffffffffff168173ffffffffffffffffffffffffffffffffffffffff161415612a8c57600060019250925050612a95565b80600092509250505b94509492505050565b60006004811115612ab257612ab1615479565b5b816004811115612ac557612ac4615479565b5b1415612ad057612c70565b60016004811115612ae457612ae3615479565b5b816004811115612af757612af6615479565b5b1415612b38576040517f08c379a0000000000000000000000000000000000000000000000000000000008152600401612b2f906154f4565b60405180910390fd5b60026004811115612b4c57612b4b615479565b5b816004811115612b5f57612b5e615479565b5b1415612ba0576040517f08c379a0000000000000000000000000000000000000000000000000000000008152600401612b9790615560565b60405180910390fd5b60036004811115612bb457612bb3615479565b5b816004811115612bc757612bc6615479565b5b1415612c08576040517f08c379a0000000000000000000000000000000000000000000000000000000008152600401612bff906155f2565b60405180910390fd5b600480811115612c1b57612c1a615479565b5b816004811115612c2e57612c2d615479565b5b1415612c6f576040517f08c379a0000000000000000000000000000000000000000000000000000000008152600401612c6690615684565b60405180910390fd5b5b50565b606060405180602001604052806000815250905090565b6060612c958261148d565b612cd4576040517f08c379a0000000000000000000000000000000000000000000000000000000008152600401612ccb90615716565b60405180910390fd5b6000612cde612c73565b90506000815111612cfe5760405180602001604052806000815250612d29565b80612d08846130c0565b604051602001612d1992919061510c565b6040516020818303038152906040525b915050919050565b612d3b8383613221565b612d4860008484846127c7565b612d87576040517f08c379a0000000000000000000000000000000000000000000000000000000008152600401612d7e9061501e565b60405180910390fd5b505050565b60007f01ffc9a7000000000000000000000000000000000000000000000000000000007bffffffffffffffffffffffffffffffffffffffffffffffffffffffff1916827bffffffffffffffffffffffffffffffffffffffffffffffffffffffff1916149050919050565b612e018383836133fb565b600073ffffffffffffffffffffffffffffffffffffffff168373ffffffffffffffffffffffffffffffffffffffff161415612e4457612e3f81613400565b612e83565b8173ffffffffffffffffffffffffffffffffffffffff168373ffffffffffffffffffffffffffffffffffffffff1614612e8257612e818382613449565b5b5b600073ffffffffffffffffffffffffffffffffffffffff168273ffffffffffffffffffffffffffffffffffffffff161415612ec657612ec1816135b6565b612f05565b8273ffffffffffffffffffffffffffffffffffffffff168273ffffffffffffffffffffffffffffffffffffffff1614612f0457612f038282613687565b5b5b505050565b612f1683836001613706565b612f218383836137c6565b505050565b6000612f3182610c19565b9050612f3f8160008461248d565b612f4a600083611501565b6001600360008373ffffffffffffffffffffffffffffffffffffffff1673ffffffffffffffffffffffffffffffffffffffff1681526020019081526020016000206000828254612f9a9190614d72565b925050819055506002600083815260200190815260200160002060006101000a81549073ffffffffffffffffffffffffffffffffffffffff021916905581600073ffffffffffffffffffffffffffffffffffffffff168273ffffffffffffffffffffffffffffffffffffffff167fddf252ad1be2c89b69c2b068fc378daa952ba7f163c4a11628f55a4df523b3ef60405160405180910390a461303f816000846124e5565b5050565b600081836130519190614d72565b905092915050565b60008061307b8561307661306c88611eaa565b868863ffffffff16565b6137cb565b91509150935093915050565b600081836130959190614da6565b905092915050565b6000808273ffffffffffffffffffffffffffffffffffffffff163b119050919050565b60606000821415613108576040518060400160405280600181526020017f3000000000000000000000000000000000000000000000000000000000000000815250905061321c565b600082905060005b6000821461313a57808061312390615736565b915050600a826131339190615244565b9150613110565b60008167ffffffffffffffff81111561315657613155613f77565b5b6040519080825280601f01601f1916602001820160405280156131885781602001600182028036833780820191505090505b5090505b60008514613215576001826131a19190614d72565b9150600a856131b0919061577f565b60306131bc9190614da6565b60f81b8183815181106131d2576131d161481f565b5b60200101907effffffffffffffffffffffffffffffffffffffffffffffffffffffffffffff1916908160001a905350600a8561320e9190615244565b945061318c565b8093505050505b919050565b600073ffffffffffffffffffffffffffffffffffffffff168273ffffffffffffffffffffffffffffffffffffffff161415613291576040517f08c379a0000000000000000000000000000000000000000000000000000000008152600401613288906157fc565b60405180910390fd5b61329a8161148d565b156132da576040517f08c379a00000000000000000000000000000000000000000000000000000000081526004016132d190615868565b60405180910390fd5b6132e66000838361248d565b6001600360008473ffffffffffffffffffffffffffffffffffffffff1673ffffffffffffffffffffffffffffffffffffffff16815260200190815260200160002060008282546133369190614da6565b92505081905550816002600083815260200190815260200160002060006101000a81548173ffffffffffffffffffffffffffffffffffffffff021916908373ffffffffffffffffffffffffffffffffffffffff160217905550808273ffffffffffffffffffffffffffffffffffffffff16600073ffffffffffffffffffffffffffffffffffffffff167fddf252ad1be2c89b69c2b068fc378daa952ba7f163c4a11628f55a4df523b3ef60405160405180910390a46133f7600083836124e5565b5050565b505050565b6008805490506009600083815260200190815260200160002081905550600881908060018154018082558091505060019003906000526020600020016000909190919091505550565b6000600161345684610ccb565b6134609190614d72565b9050600060076000848152602001908152602001600020549050818114613545576000600660008673ffffffffffffffffffffffffffffffffffffffff1673ffffffffffffffffffffffffffffffffffffffff168152602001908152602001600020600084815260200190815260200160002054905080600660008773ffffffffffffffffffffffffffffffffffffffff1673ffffffffffffffffffffffffffffffffffffffff168152602001908152602001600020600084815260200190815260200160002081905550816007600083815260200190815260200160002081905550505b6007600084815260200190815260200160002060009055600660008573ffffffffffffffffffffffffffffffffffffffff1673ffffffffffffffffffffffffffffffffffffffff16815260200190815260200160002060008381526020019081526020016000206000905550505050565b600060016008805490506135ca9190614d72565b90506000600960008481526020019081526020016000205490506000600883815481106135fa576135f961481f565b5b90600052602060002001549050806008838154811061361c5761361b61481f565b5b90600052602060002001819055508160096000838152602001908152602001600020819055506009600085815260200190815260200160002060009055600880548061366b5761366a615888565b5b6001900381819060005260206000200160009055905550505050565b600061369283610ccb565b905081600660008573ffffffffffffffffffffffffffffffffffffffff1673ffffffffffffffffffffffffffffffffffffffff168152602001908152602001600020600083815260200190815260200160002081905550806007600084815260200190815260200160002081905550505050565b600073ffffffffffffffffffffffffffffffffffffffff168373ffffffffffffffffffffffffffffffffffffffff1614156137565761375361308782600e6130599092919063ffffffff16565b50505b600073ffffffffffffffffffffffffffffffffffffffff168273ffffffffffffffffffffffffffffffffffffffff1614156137a6576137a361304382600e6130599092919063ffffffff16565b50505b6137c16137b284610b7f565b6137bb84610b7f565b836125ba565b505050565b505050565b60008060008460000180549050905060006137e586611eaa565b905060008211801561383b575043866000016001846138049190614d72565b815481106138155761381461481f565b5b9060005260206000200160000160009054906101000a900463ffffffff1663ffffffff16145b156138cb57613849856139cd565b8660000160018461385a9190614d72565b8154811061386b5761386a61481f565b5b9060005260206000200160000160046101000a8154817bffffffffffffffffffffffffffffffffffffffffffffffffffffffff02191690837bffffffffffffffffffffffffffffffffffffffffffffffffffffffff1602179055506139be565b8560000160405180604001604052806138e343613a38565b63ffffffff1681526020016138f7886139cd565b7bffffffffffffffffffffffffffffffffffffffffffffffffffffffff168152509080600181540180825580915050600190039060005260206000200160009091909190915060008201518160000160006101000a81548163ffffffff021916908363ffffffff16021790555060208201518160000160046101000a8154817bffffffffffffffffffffffffffffffffffffffffffffffffffffffff02191690837bffffffffffffffffffffffffffffffffffffffffffffffffffffffff16021790555050505b80859350935050509250929050565b60007bffffffffffffffffffffffffffffffffffffffffffffffffffffffff8016821115613a30576040517f08c379a0000000000000000000000000000000000000000000000000000000008152600401613a2790615929565b60405180910390fd5b819050919050565b600063ffffffff8016821115613a83576040517f08c379a0000000000000000000000000000000000000000000000000000000008152600401613a7a906159bb565b60405180910390fd5b819050919050565b828054613a9790614383565b90600052602060002090601f016020900481019282613ab95760008555613b00565b82601f10613ad257805160ff1916838001178555613b00565b82800160010185558215613b00579182015b82811115613aff578251825591602001919060010190613ae4565b5b509050613b0d9190613b51565b5090565b508054613b1d90614383565b6000825580601f10613b2f5750613b4e565b601f016020900490600052602060002090810190613b4d9190613b51565b5b50565b5b80821115613b6a576000816000905550600101613b52565b5090565b6000604051905090565b600080fd5b600080fd5b60007fffffffff0000000000000000000000000000000000000000000000000000000082169050919050565b613bb781613b82565b8114613bc257600080fd5b50565b600081359050613bd481613bae565b92915050565b600060208284031215613bf057613bef613b78565b5b6000613bfe84828501613bc5565b91505092915050565b60008115159050919050565b613c1c81613c07565b82525050565b6000602082019050613c376000830184613c13565b92915050565b600081519050919050565b600082825260208201905092915050565b60005b83811015613c77578082015181840152602081019050613c5c565b83811115613c86576000848401525b50505050565b6000601f19601f8301169050919050565b6000613ca882613c3d565b613cb28185613c48565b9350613cc2818560208601613c59565b613ccb81613c8c565b840191505092915050565b60006020820190508181036000830152613cf08184613c9d565b905092915050565b6000819050919050565b613d0b81613cf8565b8114613d1657600080fd5b50565b600081359050613d2881613d02565b92915050565b600060208284031215613d4457613d43613b78565b5b6000613d5284828501613d19565b91505092915050565b600073ffffffffffffffffffffffffffffffffffffffff82169050919050565b6000613d8682613d5b565b9050919050565b613d9681613d7b565b82525050565b6000602082019050613db16000830184613d8d565b92915050565b613dc081613d7b565b8114613dcb57600080fd5b50565b600081359050613ddd81613db7565b92915050565b60008060408385031215613dfa57613df9613b78565b5b6000613e0885828601613dce565b9250506020613e1985828601613d19565b9150509250929050565b613e2c81613cf8565b82525050565b6000602082019050613e476000830184613e23565b92915050565b600080600060608486031215613e6657613e65613b78565b5b6000613e7486828701613dce565b9350506020613e8586828701613dce565b9250506040613e9686828701613d19565b9150509250925092565b6000819050919050565b613eb381613ea0565b82525050565b6000602082019050613ece6000830184613eaa565b92915050565b600060208284031215613eea57613ee9613b78565b5b6000613ef884828501613dce565b91505092915050565b613f0a81613c07565b8114613f1557600080fd5b50565b600081359050613f2781613f01565b92915050565b60008060408385031215613f4457613f43613b78565b5b6000613f5285828601613dce565b9250506020613f6385828601613f18565b9150509250929050565b600080fd5b600080fd5b7f4e487b7100000000000000000000000000000000000000000000000000000000600052604160045260246000fd5b613faf82613c8c565b810181811067ffffffffffffffff82111715613fce57613fcd613f77565b5b80604052505050565b6000613fe1613b6e565b9050613fed8282613fa6565b919050565b600067ffffffffffffffff82111561400d5761400c613f77565b5b61401682613c8c565b9050602081019050919050565b82818337600083830152505050565b600061404561404084613ff2565b613fd7565b90508281526020810184848401111561406157614060613f72565b5b61406c848285614023565b509392505050565b600082601f83011261408957614088613f6d565b5b8135614099848260208601614032565b91505092915050565b600080600080608085870312156140bc576140bb613b78565b5b60006140ca87828801613dce565b94505060206140db87828801613dce565b93505060406140ec87828801613d19565b925050606085013567ffffffffffffffff81111561410d5761410c613b7d565b5b61411987828801614074565b91505092959194509250565b600060ff82169050919050565b61413b81614125565b811461414657600080fd5b50565b60008135905061415881614132565b92915050565b61416781613ea0565b811461417257600080fd5b50565b6000813590506141848161415e565b92915050565b60008060008060008060c087890312156141a7576141a6613b78565b5b60006141b589828a01613dce565b96505060206141c689828a01613d19565b95505060406141d789828a01613d19565b94505060606141e889828a01614149565b93505060806141f989828a01614175565b92505060a061420a89828a01614175565b9150509295509295509295565b600067ffffffffffffffff82111561423257614231613f77565b5b61423b82613c8c565b9050602081019050919050565b600061425b61425684614217565b613fd7565b90508281526020810184848401111561427757614276613f72565b5b614282848285614023565b509392505050565b600082601f83011261429f5761429e613f6d565b5b81356142af848260208601614248565b91505092915050565b600080604083850312156142cf576142ce613b78565b5b60006142dd85828601613dce565b925050602083013567ffffffffffffffff8111156142fe576142fd613b7d565b5b61430a8582860161428a565b9150509250929050565b6000806040838503121561432b5761432a613b78565b5b600061433985828601613dce565b925050602061434a85828601613dce565b9150509250929050565b7f4e487b7100000000000000000000000000000000000000000000000000000000600052602260045260246000fd5b6000600282049050600182168061439b57607f821691505b602082108114156143af576143ae614354565b5b50919050565b7f4552433732313a20617070726f76656420717565727920666f72206e6f6e657860008201527f697374656e7420746f6b656e0000000000000000000000000000000000000000602082015250565b6000614411602c83613c48565b915061441c826143b5565b604082019050919050565b6000602082019050818103600083015261444081614404565b9050919050565b7f4552433732313a20617070726f76616c20746f2063757272656e74206f776e6560008201527f7200000000000000000000000000000000000000000000000000000000000000602082015250565b60006144a3602183613c48565b91506144ae82614447565b604082019050919050565b600060208201905081810360008301526144d281614496565b9050919050565b7f4552433732313a20617070726f76652063616c6c6572206973206e6f74206f7760008201527f6e6572206e6f7220617070726f76656420666f7220616c6c0000000000000000602082015250565b6000614535603883613c48565b9150614540826144d9565b604082019050919050565b6000602082019050818103600083015261456481614528565b9050919050565b7f4552433732313a207472616e736665722063616c6c6572206973206e6f74206f60008201527f776e6572206e6f7220617070726f766564000000000000000000000000000000602082015250565b60006145c7603183613c48565b91506145d28261456b565b604082019050919050565b600060208201905081810360008301526145f6816145ba565b9050919050565b7f455243373231456e756d657261626c653a206f776e657220696e646578206f7560008201527f74206f6620626f756e6473000000000000000000000000000000000000000000602082015250565b6000614659602b83613c48565b9150614664826145fd565b604082019050919050565b600060208201905081810360008301526146888161464c565b9050919050565b7f4f776e61626c653a2063616c6c6572206973206e6f7420746865206f776e6572600082015250565b60006146c5602083613c48565b91506146d08261468f565b602082019050919050565b600060208201905081810360008301526146f4816146b8565b9050919050565b7f4552433732314275726e61626c653a2063616c6c6572206973206e6f74206f7760008201527f6e6572206e6f7220617070726f76656400000000000000000000000000000000602082015250565b6000614757603083613c48565b9150614762826146fb565b604082019050919050565b600060208201905081810360008301526147868161474a565b9050919050565b7f455243373231456e756d657261626c653a20676c6f62616c20696e646578206f60008201527f7574206f6620626f756e64730000000000000000000000000000000000000000602082015250565b60006147e9602c83613c48565b91506147f48261478d565b604082019050919050565b60006020820190508181036000830152614818816147dc565b9050919050565b7f4e487b7100000000000000000000000000000000000000000000000000000000600052603260045260246000fd5b7f4552433732313a206f776e657220717565727920666f72206e6f6e657869737460008201527f656e7420746f6b656e0000000000000000000000000000000000000000000000602082015250565b60006148aa602983613c48565b91506148b58261484e565b604082019050919050565b600060208201905081810360008301526148d98161489d565b9050919050565b7f4552433732313a2062616c616e636520717565727920666f7220746865207a6560008201527f726f206164647265737300000000000000000000000000000000000000000000602082015250565b600061493c602a83613c48565b9150614947826148e0565b604082019050919050565b6000602082019050818103600083015261496b8161492f565b9050919050565b7f566f7465733a20626c6f636b206e6f7420796574206d696e6564000000000000600082015250565b60006149a8601a83613c48565b91506149b382614972565b602082019050919050565b600060208201905081810360008301526149d78161499b565b9050919050565b7f566f7465733a207369676e617475726520657870697265640000000000000000600082015250565b6000614a14601883613c48565b9150614a1f826149de565b602082019050919050565b60006020820190508181036000830152614a4381614a07565b9050919050565b6000608082019050614a5f6000830187613eaa565b614a6c6020830186613d8d565b614a796040830185613e23565b614a866060830184613e23565b95945050505050565b7f566f7465733a20696e76616c6964206e6f6e6365000000000000000000000000600082015250565b6000614ac5601483613c48565b9150614ad082614a8f565b602082019050919050565b60006020820190508181036000830152614af481614ab8565b9050919050565b7f4f776e61626c653a206e6577206f776e657220697320746865207a65726f206160008201527f6464726573730000000000000000000000000000000000000000000000000000602082015250565b6000614b57602683613c48565b9150614b6282614afb565b604082019050919050565b60006020820190508181036000830152614b8681614b4a565b9050919050565b7f4552433732313a206f70657261746f7220717565727920666f72206e6f6e657860008201527f697374656e7420746f6b656e0000000000000000000000000000000000000000602082015250565b6000614be9602c83613c48565b9150614bf482614b8d565b604082019050919050565b60006020820190508181036000830152614c1881614bdc565b9050919050565b7f4552433732313a207472616e736665722066726f6d20696e636f72726563742060008201527f6f776e6572000000000000000000000000000000000000000000000000000000602082015250565b6000614c7b602583613c48565b9150614c8682614c1f565b604082019050919050565b60006020820190508181036000830152614caa81614c6e565b9050919050565b7f4552433732313a207472616e7366657220746f20746865207a65726f2061646460008201527f7265737300000000000000000000000000000000000000000000000000000000602082015250565b6000614d0d602483613c48565b9150614d1882614cb1565b604082019050919050565b60006020820190508181036000830152614d3c81614d00565b9050919050565b7f4e487b7100000000000000000000000000000000000000000000000000000000600052601160045260246000fd5b6000614d7d82613cf8565b9150614d8883613cf8565b925082821015614d9b57614d9a614d43565b5b828203905092915050565b6000614db182613cf8565b9150614dbc83613cf8565b9250827fffffffffffffffffffffffffffffffffffffffffffffffffffffffffffffffff03821115614df157614df0614d43565b5b828201905092915050565b7f436865636b706f696e74733a20626c6f636b206e6f7420796574206d696e6564600082015250565b6000614e32602083613c48565b9150614e3d82614dfc565b602082019050919050565b60006020820190508181036000830152614e6181614e25565b9050919050565b7f5061757361626c653a206e6f7420706175736564000000000000000000000000600082015250565b6000614e9e601483613c48565b9150614ea982614e68565b602082019050919050565b60006020820190508181036000830152614ecd81614e91565b9050919050565b7f5061757361626c653a2070617573656400000000000000000000000000000000600082015250565b6000614f0a601083613c48565b9150614f1582614ed4565b602082019050919050565b60006020820190508181036000830152614f3981614efd565b9050919050565b7f4552433732313a20617070726f766520746f2063616c6c657200000000000000600082015250565b6000614f76601983613c48565b9150614f8182614f40565b602082019050919050565b60006020820190508181036000830152614fa581614f69565b9050919050565b7f4552433732313a207472616e7366657220746f206e6f6e20455243373231526560008201527f63656976657220696d706c656d656e7465720000000000000000000000000000602082015250565b6000615008603283613c48565b915061501382614fac565b604082019050919050565b6000602082019050818103600083015261503781614ffb565b9050919050565b7f45524337323155524953746f726167653a2055524920717565727920666f722060008201527f6e6f6e6578697374656e7420746f6b656e000000000000000000000000000000602082015250565b600061509a603183613c48565b91506150a58261503e565b604082019050919050565b600060208201905081810360008301526150c98161508d565b9050919050565b600081905092915050565b60006150e682613c3d565b6150f081856150d0565b9350615100818560208601613c59565b80840191505092915050565b600061511882856150db565b915061512482846150db565b91508190509392505050565b7f45524337323155524953746f726167653a2055524920736574206f66206e6f6e60008201527f6578697374656e7420746f6b656e000000000000000000000000000000000000602082015250565b600061518c602e83613c48565b915061519782615130565b604082019050919050565b600060208201905081810360008301526151bb8161517f565b9050919050565b600060a0820190506151d76000830188613eaa565b6151e46020830187613eaa565b6151f16040830186613eaa565b6151fe6060830185613e23565b61520b6080830184613d8d565b9695505050505050565b7f4e487b7100000000000000000000000000000000000000000000000000000000600052601260045260246000fd5b600061524f82613cf8565b915061525a83613cf8565b92508261526a57615269615215565b5b828204905092915050565b600060408201905061528a6000830185613e23565b6152976020830184613e23565b9392505050565b600081519050919050565b600082825260208201905092915050565b60006152c58261529e565b6152cf81856152a9565b93506152df818560208601613c59565b6152e881613c8c565b840191505092915050565b60006080820190506153086000830187613d8d565b6153156020830186613d8d565b6153226040830185613e23565b818103606083015261533481846152ba565b905095945050505050565b60008151905061534e81613bae565b92915050565b60006020828403121561536a57615369613b78565b5b60006153788482850161533f565b91505092915050565b7f1901000000000000000000000000000000000000000000000000000000000000600082015250565b60006153b76002836150d0565b91506153c282615381565b600282019050919050565b6000819050919050565b6153e86153e382613ea0565b6153cd565b82525050565b60006153f9826153aa565b915061540582856153d7565b60208201915061541582846153d7565b6020820191508190509392505050565b61542e81614125565b82525050565b60006080820190506154496000830187613eaa565b6154566020830186615425565b6154636040830185613eaa565b6154706060830184613eaa565b95945050505050565b7f4e487b7100000000000000000000000000000000000000000000000000000000600052602160045260246000fd5b7f45434453413a20696e76616c6964207369676e61747572650000000000000000600082015250565b60006154de601883613c48565b91506154e9826154a8565b602082019050919050565b6000602082019050818103600083015261550d816154d1565b9050919050565b7f45434453413a20696e76616c6964207369676e6174757265206c656e67746800600082015250565b600061554a601f83613c48565b915061555582615514565b602082019050919050565b600060208201905081810360008301526155798161553d565b9050919050565b7f45434453413a20696e76616c6964207369676e6174757265202773272076616c60008201527f7565000000000000000000000000000000000000000000000000000000000000602082015250565b60006155dc602283613c48565b91506155e782615580565b604082019050919050565b6000602082019050818103600083015261560b816155cf565b9050919050565b7f45434453413a20696e76616c6964207369676e6174757265202776272076616c60008201527f7565000000000000000000000000000000000000000000000000000000000000602082015250565b600061566e602283613c48565b915061567982615612565b604082019050919050565b6000602082019050818103600083015261569d81615661565b9050919050565b7f4552433732314d657461646174613a2055524920717565727920666f72206e6f60008201527f6e6578697374656e7420746f6b656e0000000000000000000000000000000000602082015250565b6000615700602f83613c48565b915061570b826156a4565b604082019050919050565b6000602082019050818103600083015261572f816156f3565b9050919050565b600061574182613cf8565b91507fffffffffffffffffffffffffffffffffffffffffffffffffffffffffffffffff82141561577457615773614d43565b5b600182019050919050565b600061578a82613cf8565b915061579583613cf8565b9250826157a5576157a4615215565b5b828206905092915050565b7f4552433732313a206d696e7420746f20746865207a65726f2061646472657373600082015250565b60006157e6602083613c48565b91506157f1826157b0565b602082019050919050565b60006020820190508181036000830152615815816157d9565b9050919050565b7f4552433732313a20746f6b656e20616c7265616479206d696e74656400000000600082015250565b6000615852601c83613c48565b915061585d8261581c565b602082019050919050565b6000602082019050818103600083015261588181615845565b9050919050565b7f4e487b7100000000000000000000000000000000000000000000000000000000600052603160045260246000fd5b7f53616665436173743a2076616c756520646f65736e27742066697420696e203260008201527f3234206269747300000000000000000000000000000000000000000000000000602082015250565b6000615913602783613c48565b915061591e826158b7565b604082019050919050565b6000602082019050818103600083015261594281615906565b9050919050565b7f53616665436173743a2076616c756520646f65736e27742066697420696e203360008201527f3220626974730000000000000000000000000000000000000000000000000000602082015250565b60006159a5602683613c48565b91506159b082615949565b604082019050919050565b600060208201905081810360008301526159d481615998565b905091905056fea26469706673582212207a30d1c876841b77e62c52cbefcff9459b67b8cc21e3a932481a3cea1cbfe76f64736f6c63430008090033",
    "immutableReferences": {
        "3573": [
            {
                "length": 32,
                "start": 6530
            }
        ],
        "3575": [
            {
                "length": 32,
                "start": 6489
            }
        ],
        "3577": [
            {
                "length": 32,
                "start": 6403
            }
        ],
        "3579": [
            {
                "length": 32,
                "start": 6606
            }
        ],
        "3581": [
            {
                "length": 32,
                "start": 6639
            }
        ],
        "3583": [
            {
                "length": 32,
                "start": 6573
            }
        ]
    },
    "source": "// SPDX-License-Identifier: MIT\npragma solidity ^0.8.9;\n\nimport \"@openzeppelin/contracts/token/ERC721/ERC721.sol\";\nimport \"@openzeppelin/contracts/token/ERC721/extensions/ERC721Enumerable.sol\";\nimport \"@openzeppelin/contracts/token/ERC721/extensions/ERC721URIStorage.sol\";\nimport \"@openzeppelin/contracts/security/Pausable.sol\";\nimport \"@openzeppelin/contracts/access/Ownable.sol\";\nimport \"@openzeppelin/contracts/token/ERC721/extensions/ERC721Burnable.sol\";\nimport \"@openzeppelin/contracts/utils/cryptography/draft-EIP712.sol\";\nimport \"@openzeppelin/contracts/token/ERC721/extensions/draft-ERC721Votes.sol\";\nimport \"@openzeppelin/contracts/utils/Counters.sol\";\n\ncontract Test is ERC721, ERC721Enumerable, ERC721URIStorage, Pausable, Ownable, ERC721Burnable, EIP712, ERC721Votes {\n    using Counters for Counters.Counter;\n\n    Counters.Counter private _tokenIdCounter;\n\n    constructor() ERC721(\"test\", \"TST\") EIP712(\"test\", \"1\") {}\n\n    function pause() public onlyOwner {\n        _pause();\n    }\n\n    function unpause() public onlyOwner {\n        _unpause();\n    }\n\n    function safeMint(address to, string memory uri) public onlyOwner {\n        uint256 tokenId = _tokenIdCounter.current();\n        _tokenIdCounter.increment();\n        _safeMint(to, tokenId);\n        _setTokenURI(tokenId, uri);\n    }\n\n    function _beforeTokenTransfer(address from, address to, uint256 tokenId)\n        internal\n        whenNotPaused\n        override(ERC721, ERC721Enumerable)\n    {\n        super._beforeTokenTransfer(from, to, tokenId);\n    }\n\n    // The following functions are overrides required by Solidity.\n\n    function _afterTokenTransfer(address from, address to, uint256 tokenId)\n        internal\n        override(ERC721, ERC721Votes)\n    {\n        super._afterTokenTransfer(from, to, tokenId);\n    }\n\n    function _burn(uint256 tokenId) internal override(ERC721, ERC721URIStorage) {\n        super._burn(tokenId);\n    }\n\n    function tokenURI(uint256 tokenId)\n        public\n        view\n        override(ERC721, ERC721URIStorage)\n        returns (string memory)\n    {\n        return super.tokenURI(tokenId);\n    }\n\n    function supportsInterface(bytes4 interfaceId)\n        public\n        view\n        override(ERC721, ERC721Enumerable)\n        returns (bool)\n    {\n        return super.supportsInterface(interfaceId);\n    }\n}\n",
    "sourcePath": "/Users/kiwitech/Rajan-kiwitech/smartContractExperiment/contracts/Test.sol",
    "compiler": {
        "name": "solc",
        "version": "0.8.9+commit.e5eed63a.Emscripten.clang"
    },
    "schemaVersion": "3.4.7",
    "updatedAt": "2023-02-08T13:33:45.383Z",
    "devdoc": {
        "kind": "dev",
        "methods": {
            "DOMAIN_SEPARATOR()": {
                "details": "Returns the contract's {EIP712} domain separator."
            },
            "approve(address,uint256)": {
                "details": "See {IERC721-approve}."
            },
            "balanceOf(address)": {
                "details": "See {IERC721-balanceOf}."
            },
            "burn(uint256)": {
                "details": "Burns `tokenId`. See {ERC721-_burn}. Requirements: - The caller must own `tokenId` or be an approved operator."
            },
            "delegate(address)": {
                "details": "Delegates votes from the sender to `delegatee`."
            },
            "delegateBySig(address,uint256,uint256,uint8,bytes32,bytes32)": {
                "details": "Delegates votes from signer to `delegatee`."
            },
            "delegates(address)": {
                "details": "Returns the delegate that `account` has chosen."
            },
            "getApproved(uint256)": {
                "details": "See {IERC721-getApproved}."
            },
            "getPastTotalSupply(uint256)": {
                "details": "Returns the total supply of votes available at the end of a past block (`blockNumber`). NOTE: This value is the sum of all available votes, which is not necessarily the sum of all delegated votes. Votes that have not been delegated are still part of total supply, even though they would not participate in a vote. Requirements: - `blockNumber` must have been already mined"
            },
            "getPastVotes(address,uint256)": {
                "details": "Returns the amount of votes that `account` had at the end of a past block (`blockNumber`). Requirements: - `blockNumber` must have been already mined"
            },
            "getVotes(address)": {
                "details": "Returns the current amount of votes that `account` has."
            },
            "isApprovedForAll(address,address)": {
                "details": "See {IERC721-isApprovedForAll}."
            },
            "name()": {
                "details": "See {IERC721Metadata-name}."
            },
            "nonces(address)": {
                "details": "Returns an address nonce."
            },
            "owner()": {
                "details": "Returns the address of the current owner."
            },
            "ownerOf(uint256)": {
                "details": "See {IERC721-ownerOf}."
            },
            "paused()": {
                "details": "Returns true if the contract is paused, and false otherwise."
            },
            "renounceOwnership()": {
                "details": "Leaves the contract without owner. It will not be possible to call `onlyOwner` functions anymore. Can only be called by the current owner. NOTE: Renouncing ownership will leave the contract without an owner, thereby removing any functionality that is only available to the owner."
            },
            "safeTransferFrom(address,address,uint256)": {
                "details": "See {IERC721-safeTransferFrom}."
            },
            "safeTransferFrom(address,address,uint256,bytes)": {
                "details": "See {IERC721-safeTransferFrom}."
            },
            "setApprovalForAll(address,bool)": {
                "details": "See {IERC721-setApprovalForAll}."
            },
            "symbol()": {
                "details": "See {IERC721Metadata-symbol}."
            },
            "tokenByIndex(uint256)": {
                "details": "See {IERC721Enumerable-tokenByIndex}."
            },
            "tokenOfOwnerByIndex(address,uint256)": {
                "details": "See {IERC721Enumerable-tokenOfOwnerByIndex}."
            },
            "totalSupply()": {
                "details": "See {IERC721Enumerable-totalSupply}."
            },
            "transferFrom(address,address,uint256)": {
                "details": "See {IERC721-transferFrom}."
            },
            "transferOwnership(address)": {
                "details": "Transfers ownership of the contract to a new account (`newOwner`). Can only be called by the current owner."
            }
        },
        "version": 1
    },
    "userdoc": {
        "kind": "user",
        "methods": {},
        "version": 1
    }
}